{
  "_format": "hh-sol-artifact-1",
  "contractName": "Item",
  "sourceName": "contracts/Item.sol",
  "abi": [
    {
      "inputs": [
        {
          "internalType": "address",
          "name": "marketplaceAddress",
          "type": "address"
        }
      ],
      "stateMutability": "nonpayable",
      "type": "constructor"
    },
    {
      "anonymous": false,
      "inputs": [
        {
          "indexed": true,
          "internalType": "address",
          "name": "owner",
          "type": "address"
        },
        {
          "indexed": true,
          "internalType": "address",
          "name": "approved",
          "type": "address"
        },
        {
          "indexed": true,
          "internalType": "uint256",
          "name": "tokenId",
          "type": "uint256"
        }
      ],
      "name": "Approval",
      "type": "event"
    },
    {
      "anonymous": false,
      "inputs": [
        {
          "indexed": true,
          "internalType": "address",
          "name": "owner",
          "type": "address"
        },
        {
          "indexed": true,
          "internalType": "address",
          "name": "operator",
          "type": "address"
        },
        {
          "indexed": false,
          "internalType": "bool",
          "name": "approved",
          "type": "bool"
        }
      ],
      "name": "ApprovalForAll",
      "type": "event"
    },
    {
      "anonymous": false,
      "inputs": [
        {
          "indexed": true,
          "internalType": "address",
          "name": "from",
          "type": "address"
        },
        {
          "indexed": true,
          "internalType": "address",
          "name": "to",
          "type": "address"
        },
        {
          "indexed": true,
          "internalType": "uint256",
          "name": "tokenId",
          "type": "uint256"
        }
      ],
      "name": "Transfer",
      "type": "event"
    },
    {
      "inputs": [
        {
          "internalType": "address",
          "name": "to",
          "type": "address"
        },
        {
          "internalType": "uint256",
          "name": "tokenId",
          "type": "uint256"
        }
      ],
      "name": "approve",
      "outputs": [],
      "stateMutability": "nonpayable",
      "type": "function"
    },
    {
      "inputs": [
        {
          "internalType": "address",
          "name": "owner",
          "type": "address"
        }
      ],
      "name": "balanceOf",
      "outputs": [
        {
          "internalType": "uint256",
          "name": "",
          "type": "uint256"
        }
      ],
      "stateMutability": "view",
      "type": "function"
    },
    {
      "inputs": [],
      "name": "collectionName",
      "outputs": [
        {
          "internalType": "string",
          "name": "",
          "type": "string"
        }
      ],
      "stateMutability": "view",
      "type": "function"
    },
    {
      "inputs": [],
      "name": "collectionSymbol",
      "outputs": [
        {
          "internalType": "string",
          "name": "",
          "type": "string"
        }
      ],
      "stateMutability": "view",
      "type": "function"
    },
    {
      "inputs": [
        {
          "internalType": "string",
          "name": "tokenUri",
          "type": "string"
        }
      ],
      "name": "createItem",
      "outputs": [
        {
          "internalType": "uint256",
          "name": "",
          "type": "uint256"
        }
      ],
      "stateMutability": "nonpayable",
      "type": "function"
    },
    {
      "inputs": [
        {
          "internalType": "uint256",
          "name": "tokenId",
          "type": "uint256"
        }
      ],
      "name": "getApproved",
      "outputs": [
        {
          "internalType": "address",
          "name": "",
          "type": "address"
        }
      ],
      "stateMutability": "view",
      "type": "function"
    },
    {
      "inputs": [
        {
          "internalType": "uint256",
          "name": "",
          "type": "uint256"
        }
      ],
      "name": "idToNFTItems",
      "outputs": [
        {
          "internalType": "uint256",
          "name": "tokenId",
          "type": "uint256"
        },
        {
          "internalType": "address",
          "name": "owner",
          "type": "address"
        },
        {
          "internalType": "string",
          "name": "tokenUri",
          "type": "string"
        }
      ],
      "stateMutability": "view",
      "type": "function"
    },
    {
      "inputs": [
        {
          "internalType": "address",
          "name": "owner",
          "type": "address"
        },
        {
          "internalType": "address",
          "name": "operator",
          "type": "address"
        }
      ],
      "name": "isApprovedForAll",
      "outputs": [
        {
          "internalType": "bool",
          "name": "",
          "type": "bool"
        }
      ],
      "stateMutability": "view",
      "type": "function"
    },
    {
      "inputs": [],
      "name": "name",
      "outputs": [
        {
          "internalType": "string",
          "name": "",
          "type": "string"
        }
      ],
      "stateMutability": "view",
      "type": "function"
    },
    {
      "inputs": [
        {
          "internalType": "uint256",
          "name": "tokenId",
          "type": "uint256"
        }
      ],
      "name": "ownerOf",
      "outputs": [
        {
          "internalType": "address",
          "name": "",
          "type": "address"
        }
      ],
      "stateMutability": "view",
      "type": "function"
    },
    {
      "inputs": [
        {
          "internalType": "address",
          "name": "from",
          "type": "address"
        },
        {
          "internalType": "address",
          "name": "to",
          "type": "address"
        },
        {
          "internalType": "uint256",
          "name": "tokenId",
          "type": "uint256"
        }
      ],
      "name": "safeTransferFrom",
      "outputs": [],
      "stateMutability": "nonpayable",
      "type": "function"
    },
    {
      "inputs": [
        {
          "internalType": "address",
          "name": "from",
          "type": "address"
        },
        {
          "internalType": "address",
          "name": "to",
          "type": "address"
        },
        {
          "internalType": "uint256",
          "name": "tokenId",
          "type": "uint256"
        },
        {
          "internalType": "bytes",
          "name": "_data",
          "type": "bytes"
        }
      ],
      "name": "safeTransferFrom",
      "outputs": [],
      "stateMutability": "nonpayable",
      "type": "function"
    },
    {
      "inputs": [
        {
          "internalType": "address",
          "name": "operator",
          "type": "address"
        },
        {
          "internalType": "bool",
          "name": "approved",
          "type": "bool"
        }
      ],
      "name": "setApprovalForAll",
      "outputs": [],
      "stateMutability": "nonpayable",
      "type": "function"
    },
    {
      "inputs": [
        {
          "internalType": "bytes4",
          "name": "interfaceId",
          "type": "bytes4"
        }
      ],
      "name": "supportsInterface",
      "outputs": [
        {
          "internalType": "bool",
          "name": "",
          "type": "bool"
        }
      ],
      "stateMutability": "view",
      "type": "function"
    },
    {
      "inputs": [],
      "name": "symbol",
      "outputs": [
        {
          "internalType": "string",
          "name": "",
          "type": "string"
        }
      ],
      "stateMutability": "view",
      "type": "function"
    },
    {
      "inputs": [
        {
          "internalType": "uint256",
          "name": "tokenId",
          "type": "uint256"
        }
      ],
      "name": "tokenURI",
      "outputs": [
        {
          "internalType": "string",
          "name": "",
          "type": "string"
        }
      ],
      "stateMutability": "view",
      "type": "function"
    },
    {
      "inputs": [
        {
          "internalType": "address",
          "name": "from",
          "type": "address"
        },
        {
          "internalType": "address",
          "name": "to",
          "type": "address"
        },
        {
          "internalType": "uint256",
          "name": "tokenId",
          "type": "uint256"
        }
      ],
      "name": "transferFrom",
      "outputs": [],
      "stateMutability": "nonpayable",
      "type": "function"
    },
    {
      "inputs": [
        {
          "internalType": "address",
          "name": "from",
          "type": "address"
        },
        {
          "internalType": "address",
          "name": "to",
          "type": "address"
        },
        {
          "internalType": "uint256",
          "name": "tokenId",
          "type": "uint256"
        }
      ],
      "name": "transferItem",
      "outputs": [],
      "stateMutability": "nonpayable",
      "type": "function"
    }
  ],
  "bytecode": "0x60806040523480156200001157600080fd5b50604051620034c7380380620034c78339818101604052810190620000379190620003bd565b6040518060400160405280600481526020017f4974656d000000000000000000000000000000000000000000000000000000008152506040518060400160405280600481526020017f4954454d000000000000000000000000000000000000000000000000000000008152508160009080519060200190620000bb929190620002a3565b508060019080519060200190620000d4929190620002a3565b50505080600860006101000a81548173ffffffffffffffffffffffffffffffffffffffff021916908373ffffffffffffffffffffffffffffffffffffffff160217905550620001286200016f60201b60201c565b600990805190602001906200013f929190620002a3565b50620001506200020960201b60201c565b600a908051906020019062000167929190620002a3565b505062000454565b60606000805462000180906200041e565b80601f0160208091040260200160405190810160405280929190818152602001828054620001ae906200041e565b8015620001ff5780601f10620001d357610100808354040283529160200191620001ff565b820191906000526020600020905b815481529060010190602001808311620001e157829003601f168201915b5050505050905090565b6060600180546200021a906200041e565b80601f016020809104026020016040519081016040528092919081815260200182805462000248906200041e565b8015620002995780601f106200026d5761010080835404028352916020019162000299565b820191906000526020600020905b8154815290600101906020018083116200027b57829003601f168201915b5050505050905090565b828054620002b1906200041e565b90600052602060002090601f016020900481019282620002d5576000855562000321565b82601f10620002f057805160ff191683800117855562000321565b8280016001018555821562000321579182015b828111156200032057825182559160200191906001019062000303565b5b50905062000330919062000334565b5090565b5b808211156200034f57600081600090555060010162000335565b5090565b600080fd5b600073ffffffffffffffffffffffffffffffffffffffff82169050919050565b6000620003858262000358565b9050919050565b620003978162000378565b8114620003a357600080fd5b50565b600081519050620003b7816200038c565b92915050565b600060208284031215620003d657620003d562000353565b5b6000620003e684828501620003a6565b91505092915050565b7f4e487b7100000000000000000000000000000000000000000000000000000000600052602260045260246000fd5b600060028204905060018216806200043757607f821691505b602082108114156200044e576200044d620003ef565b5b50919050565b61306380620004646000396000f3fe608060405234801561001057600080fd5b50600436106101165760003560e01c80636295c61a116100a2578063a22cb46511610071578063a22cb46514610307578063b88d4fde14610323578063c87b56dd1461033f578063e5326ab11461036f578063e985e9c51461038d57610116565b80636295c61a1461026d5780636352211e1461028957806370a08231146102b957806395d89b41146102e957610116565b806323b872dd116100e957806323b872dd146101b55780632f39352a146101d15780633d54eebb146101ef578063421c92cc1461021f57806342842e0e1461025157610116565b806301ffc9a71461011b57806306fdde031461014b578063081812fc14610169578063095ea7b314610199575b600080fd5b61013560048036038101906101309190611d2e565b6103bd565b6040516101429190611d76565b60405180910390f35b61015361049f565b6040516101609190611e2a565b60405180910390f35b610183600480360381019061017e9190611e82565b610531565b6040516101909190611ef0565b60405180910390f35b6101b360048036038101906101ae9190611f37565b6105b6565b005b6101cf60048036038101906101ca9190611f77565b6106ce565b005b6101d961072e565b6040516101e69190611e2a565b60405180910390f35b610209600480360381019061020491906120ff565b6107bc565b6040516102169190612157565b60405180910390f35b61023960048036038101906102349190611e82565b6108d4565b60405161024893929190612172565b60405180910390f35b61026b60048036038101906102669190611f77565b6109a6565b005b61028760048036038101906102829190611f77565b6109c6565b005b6102a3600480360381019061029e9190611e82565b610a4c565b6040516102b09190611ef0565b60405180910390f35b6102d360048036038101906102ce91906121b0565b610afe565b6040516102e09190612157565b60405180910390f35b6102f1610bb6565b6040516102fe9190611e2a565b60405180910390f35b610321600480360381019061031c9190612209565b610c48565b005b61033d600480360381019061033891906122ea565b610c5e565b005b61035960048036038101906103549190611e82565b610cc0565b6040516103669190611e2a565b60405180910390f35b610377610e12565b6040516103849190611e2a565b60405180910390f35b6103a760048036038101906103a2919061236d565b610ea0565b6040516103b49190611d76565b60405180910390f35b60007f80ac58cd000000000000000000000000000000000000000000000000000000007bffffffffffffffffffffffffffffffffffffffffffffffffffffffff1916827bffffffffffffffffffffffffffffffffffffffffffffffffffffffff1916148061048857507f5b5e139f000000000000000000000000000000000000000000000000000000007bffffffffffffffffffffffffffffffffffffffffffffffffffffffff1916827bffffffffffffffffffffffffffffffffffffffffffffffffffffffff1916145b80610498575061049782610f34565b5b9050919050565b6060600080546104ae906123dc565b80601f01602080910402602001604051908101604052809291908181526020018280546104da906123dc565b80156105275780601f106104fc57610100808354040283529160200191610527565b820191906000526020600020905b81548152906001019060200180831161050a57829003601f168201915b5050505050905090565b600061053c82610f9e565b61057b576040517f08c379a000000000000000000000000000000000000000000000000000000000815260040161057290612480565b60405180910390fd5b6004600083815260200190815260200160002060009054906101000a900473ffffffffffffffffffffffffffffffffffffffff169050919050565b60006105c182610a4c565b90508073ffffffffffffffffffffffffffffffffffffffff168373ffffffffffffffffffffffffffffffffffffffff161415610632576040517f08c379a000000000000000000000000000000000000000000000000000000000815260040161062990612512565b60405180910390fd5b8073ffffffffffffffffffffffffffffffffffffffff1661065161100a565b73ffffffffffffffffffffffffffffffffffffffff161480610680575061067f8161067a61100a565b610ea0565b5b6106bf576040517f08c379a00000000000000000000000000000000000000000000000000000000081526004016106b6906125a4565b60405180910390fd5b6106c98383611012565b505050565b6106df6106d961100a565b826110cb565b61071e576040517f08c379a000000000000000000000000000000000000000000000000000000000815260040161071590612636565b60405180910390fd5b6107298383836111a9565b505050565b600a805461073b906123dc565b80601f0160208091040260200160405190810160405280929190818152602001828054610767906123dc565b80156107b45780601f10610789576101008083540402835291602001916107b4565b820191906000526020600020905b81548152906001019060200180831161079757829003601f168201915b505050505081565b6000806107c96007611410565b90506107d5338261141e565b6107df81846115f8565b61080c600860009054906101000a900473ffffffffffffffffffffffffffffffffffffffff166001610c48565b60405180606001604052808281526020013373ffffffffffffffffffffffffffffffffffffffff16815260200184815250600b60008381526020019081526020016000206000820151816000015560208201518160010160006101000a81548173ffffffffffffffffffffffffffffffffffffffff021916908373ffffffffffffffffffffffffffffffffffffffff16021790555060408201518160020190805190602001906108bd929190611c1f565b509050506108cb600761166c565b80915050919050565b600b6020528060005260406000206000915090508060000154908060010160009054906101000a900473ffffffffffffffffffffffffffffffffffffffff1690806002018054610923906123dc565b80601f016020809104026020016040519081016040528092919081815260200182805461094f906123dc565b801561099c5780601f106109715761010080835404028352916020019161099c565b820191906000526020600020905b81548152906001019060200180831161097f57829003601f168201915b5050505050905083565b6109c183838360405180602001604052806000815250610c5e565b505050565b8273ffffffffffffffffffffffffffffffffffffffff166109e682610a4c565b73ffffffffffffffffffffffffffffffffffffffff1614610a3c576040517f08c379a0000000000000000000000000000000000000000000000000000000008152600401610a33906126a2565b60405180910390fd5b610a478383836111a9565b505050565b6000806002600084815260200190815260200160002060009054906101000a900473ffffffffffffffffffffffffffffffffffffffff169050600073ffffffffffffffffffffffffffffffffffffffff168173ffffffffffffffffffffffffffffffffffffffff161415610af5576040517f08c379a0000000000000000000000000000000000000000000000000000000008152600401610aec90612734565b60405180910390fd5b80915050919050565b60008073ffffffffffffffffffffffffffffffffffffffff168273ffffffffffffffffffffffffffffffffffffffff161415610b6f576040517f08c379a0000000000000000000000000000000000000000000000000000000008152600401610b66906127c6565b60405180910390fd5b600360008373ffffffffffffffffffffffffffffffffffffffff1673ffffffffffffffffffffffffffffffffffffffff168152602001908152602001600020549050919050565b606060018054610bc5906123dc565b80601f0160208091040260200160405190810160405280929190818152602001828054610bf1906123dc565b8015610c3e5780601f10610c1357610100808354040283529160200191610c3e565b820191906000526020600020905b815481529060010190602001808311610c2157829003601f168201915b5050505050905090565b610c5a610c5361100a565b8383611682565b5050565b610c6f610c6961100a565b836110cb565b610cae576040517f08c379a0000000000000000000000000000000000000000000000000000000008152600401610ca590612636565b60405180910390fd5b610cba848484846117ef565b50505050565b6060610ccb82610f9e565b610d0a576040517f08c379a0000000000000000000000000000000000000000000000000000000008152600401610d0190612858565b60405180910390fd5b6000600660008481526020019081526020016000208054610d2a906123dc565b80601f0160208091040260200160405190810160405280929190818152602001828054610d56906123dc565b8015610da35780601f10610d7857610100808354040283529160200191610da3565b820191906000526020600020905b815481529060010190602001808311610d8657829003601f168201915b505050505090506000610db461184b565b9050600081511415610dca578192505050610e0d565b600082511115610dff578082604051602001610de79291906128b4565b60405160208183030381529060405292505050610e0d565b610e0884611862565b925050505b919050565b60098054610e1f906123dc565b80601f0160208091040260200160405190810160405280929190818152602001828054610e4b906123dc565b8015610e985780601f10610e6d57610100808354040283529160200191610e98565b820191906000526020600020905b815481529060010190602001808311610e7b57829003601f168201915b505050505081565b6000600560008473ffffffffffffffffffffffffffffffffffffffff1673ffffffffffffffffffffffffffffffffffffffff16815260200190815260200160002060008373ffffffffffffffffffffffffffffffffffffffff1673ffffffffffffffffffffffffffffffffffffffff16815260200190815260200160002060009054906101000a900460ff16905092915050565b60007f01ffc9a7000000000000000000000000000000000000000000000000000000007bffffffffffffffffffffffffffffffffffffffffffffffffffffffff1916827bffffffffffffffffffffffffffffffffffffffffffffffffffffffff1916149050919050565b60008073ffffffffffffffffffffffffffffffffffffffff166002600084815260200190815260200160002060009054906101000a900473ffffffffffffffffffffffffffffffffffffffff1673ffffffffffffffffffffffffffffffffffffffff1614159050919050565b600033905090565b816004600083815260200190815260200160002060006101000a81548173ffffffffffffffffffffffffffffffffffffffff021916908373ffffffffffffffffffffffffffffffffffffffff160217905550808273ffffffffffffffffffffffffffffffffffffffff1661108583610a4c565b73ffffffffffffffffffffffffffffffffffffffff167f8c5be1e5ebec7d5bd14f71427d1e84f3dd0314c0f7b2291e5b200ac8c7c3b92560405160405180910390a45050565b60006110d682610f9e565b611115576040517f08c379a000000000000000000000000000000000000000000000000000000000815260040161110c9061294a565b60405180910390fd5b600061112083610a4c565b90508073ffffffffffffffffffffffffffffffffffffffff168473ffffffffffffffffffffffffffffffffffffffff16148061116257506111618185610ea0565b5b806111a057508373ffffffffffffffffffffffffffffffffffffffff1661118884610531565b73ffffffffffffffffffffffffffffffffffffffff16145b91505092915050565b8273ffffffffffffffffffffffffffffffffffffffff166111c982610a4c565b73ffffffffffffffffffffffffffffffffffffffff161461121f576040517f08c379a0000000000000000000000000000000000000000000000000000000008152600401611216906129dc565b60405180910390fd5b600073ffffffffffffffffffffffffffffffffffffffff168273ffffffffffffffffffffffffffffffffffffffff16141561128f576040517f08c379a000000000000000000000000000000000000000000000000000000000815260040161128690612a6e565b60405180910390fd5b61129a838383611909565b6112a5600082611012565b6001600360008573ffffffffffffffffffffffffffffffffffffffff1673ffffffffffffffffffffffffffffffffffffffff16815260200190815260200160002060008282546112f59190612abd565b925050819055506001600360008473ffffffffffffffffffffffffffffffffffffffff1673ffffffffffffffffffffffffffffffffffffffff168152602001908152602001600020600082825461134c9190612af1565b92505081905550816002600083815260200190815260200160002060006101000a81548173ffffffffffffffffffffffffffffffffffffffff021916908373ffffffffffffffffffffffffffffffffffffffff160217905550808273ffffffffffffffffffffffffffffffffffffffff168473ffffffffffffffffffffffffffffffffffffffff167fddf252ad1be2c89b69c2b068fc378daa952ba7f163c4a11628f55a4df523b3ef60405160405180910390a461140b83838361190e565b505050565b600081600001549050919050565b600073ffffffffffffffffffffffffffffffffffffffff168273ffffffffffffffffffffffffffffffffffffffff16141561148e576040517f08c379a000000000000000000000000000000000000000000000000000000000815260040161148590612b93565b60405180910390fd5b61149781610f9e565b156114d7576040517f08c379a00000000000000000000000000000000000000000000000000000000081526004016114ce90612bff565b60405180910390fd5b6114e360008383611909565b6001600360008473ffffffffffffffffffffffffffffffffffffffff1673ffffffffffffffffffffffffffffffffffffffff16815260200190815260200160002060008282546115339190612af1565b92505081905550816002600083815260200190815260200160002060006101000a81548173ffffffffffffffffffffffffffffffffffffffff021916908373ffffffffffffffffffffffffffffffffffffffff160217905550808273ffffffffffffffffffffffffffffffffffffffff16600073ffffffffffffffffffffffffffffffffffffffff167fddf252ad1be2c89b69c2b068fc378daa952ba7f163c4a11628f55a4df523b3ef60405160405180910390a46115f46000838361190e565b5050565b61160182610f9e565b611640576040517f08c379a000000000000000000000000000000000000000000000000000000000815260040161163790612c91565b60405180910390fd5b80600660008481526020019081526020016000209080519060200190611667929190611c1f565b505050565b6001816000016000828254019250508190555050565b8173ffffffffffffffffffffffffffffffffffffffff168373ffffffffffffffffffffffffffffffffffffffff1614156116f1576040517f08c379a00000000000000000000000000000000000000000000000000000000081526004016116e890612cfd565b60405180910390fd5b80600560008573ffffffffffffffffffffffffffffffffffffffff1673ffffffffffffffffffffffffffffffffffffffff16815260200190815260200160002060008473ffffffffffffffffffffffffffffffffffffffff1673ffffffffffffffffffffffffffffffffffffffff16815260200190815260200160002060006101000a81548160ff0219169083151502179055508173ffffffffffffffffffffffffffffffffffffffff168373ffffffffffffffffffffffffffffffffffffffff167f17307eab39ab6107e8899845ad3d59bd9653f200f220920489ca2b5937696c31836040516117e29190611d76565b60405180910390a3505050565b6117fa8484846111a9565b61180684848484611913565b611845576040517f08c379a000000000000000000000000000000000000000000000000000000000815260040161183c90612d8f565b60405180910390fd5b50505050565b606060405180602001604052806000815250905090565b606061186d82610f9e565b6118ac576040517f08c379a00000000000000000000000000000000000000000000000000000000081526004016118a390612e21565b60405180910390fd5b60006118b661184b565b905060008151116118d65760405180602001604052806000815250611901565b806118e084611a9b565b6040516020016118f19291906128b4565b6040516020818303038152906040525b915050919050565b505050565b505050565b60006119348473ffffffffffffffffffffffffffffffffffffffff16611bfc565b15611a8e578373ffffffffffffffffffffffffffffffffffffffff1663150b7a0261195d61100a565b8786866040518563ffffffff1660e01b815260040161197f9493929190612e96565b6020604051808303816000875af19250505080156119bb57506040513d601f19601f820116820180604052508101906119b89190612ef7565b60015b611a3e573d80600081146119eb576040519150601f19603f3d011682016040523d82523d6000602084013e6119f0565b606091505b50600081511415611a36576040517f08c379a0000000000000000000000000000000000000000000000000000000008152600401611a2d90612d8f565b60405180910390fd5b805181602001fd5b63150b7a0260e01b7bffffffffffffffffffffffffffffffffffffffffffffffffffffffff1916817bffffffffffffffffffffffffffffffffffffffffffffffffffffffff191614915050611a93565b600190505b949350505050565b60606000821415611ae3576040518060400160405280600181526020017f30000000000000000000000000000000000000000000000000000000000000008152509050611bf7565b600082905060005b60008214611b15578080611afe90612f24565b915050600a82611b0e9190612f9c565b9150611aeb565b60008167ffffffffffffffff811115611b3157611b30611fd4565b5b6040519080825280601f01601f191660200182016040528015611b635781602001600182028036833780820191505090505b5090505b60008514611bf057600182611b7c9190612abd565b9150600a85611b8b9190612fcd565b6030611b979190612af1565b60f81b818381518110611bad57611bac612ffe565b5b60200101907effffffffffffffffffffffffffffffffffffffffffffffffffffffffffffff1916908160001a905350600a85611be99190612f9c565b9450611b67565b8093505050505b919050565b6000808273ffffffffffffffffffffffffffffffffffffffff163b119050919050565b828054611c2b906123dc565b90600052602060002090601f016020900481019282611c4d5760008555611c94565b82601f10611c6657805160ff1916838001178555611c94565b82800160010185558215611c94579182015b82811115611c93578251825591602001919060010190611c78565b5b509050611ca19190611ca5565b5090565b5b80821115611cbe576000816000905550600101611ca6565b5090565b6000604051905090565b600080fd5b600080fd5b60007fffffffff0000000000000000000000000000000000000000000000000000000082169050919050565b611d0b81611cd6565b8114611d1657600080fd5b50565b600081359050611d2881611d02565b92915050565b600060208284031215611d4457611d43611ccc565b5b6000611d5284828501611d19565b91505092915050565b60008115159050919050565b611d7081611d5b565b82525050565b6000602082019050611d8b6000830184611d67565b92915050565b600081519050919050565b600082825260208201905092915050565b60005b83811015611dcb578082015181840152602081019050611db0565b83811115611dda576000848401525b50505050565b6000601f19601f8301169050919050565b6000611dfc82611d91565b611e068185611d9c565b9350611e16818560208601611dad565b611e1f81611de0565b840191505092915050565b60006020820190508181036000830152611e448184611df1565b905092915050565b6000819050919050565b611e5f81611e4c565b8114611e6a57600080fd5b50565b600081359050611e7c81611e56565b92915050565b600060208284031215611e9857611e97611ccc565b5b6000611ea684828501611e6d565b91505092915050565b600073ffffffffffffffffffffffffffffffffffffffff82169050919050565b6000611eda82611eaf565b9050919050565b611eea81611ecf565b82525050565b6000602082019050611f056000830184611ee1565b92915050565b611f1481611ecf565b8114611f1f57600080fd5b50565b600081359050611f3181611f0b565b92915050565b60008060408385031215611f4e57611f4d611ccc565b5b6000611f5c85828601611f22565b9250506020611f6d85828601611e6d565b9150509250929050565b600080600060608486031215611f9057611f8f611ccc565b5b6000611f9e86828701611f22565b9350506020611faf86828701611f22565b9250506040611fc086828701611e6d565b9150509250925092565b600080fd5b600080fd5b7f4e487b7100000000000000000000000000000000000000000000000000000000600052604160045260246000fd5b61200c82611de0565b810181811067ffffffffffffffff8211171561202b5761202a611fd4565b5b80604052505050565b600061203e611cc2565b905061204a8282612003565b919050565b600067ffffffffffffffff82111561206a57612069611fd4565b5b61207382611de0565b9050602081019050919050565b82818337600083830152505050565b60006120a261209d8461204f565b612034565b9050828152602081018484840111156120be576120bd611fcf565b5b6120c9848285612080565b509392505050565b600082601f8301126120e6576120e5611fca565b5b81356120f684826020860161208f565b91505092915050565b60006020828403121561211557612114611ccc565b5b600082013567ffffffffffffffff81111561213357612132611cd1565b5b61213f848285016120d1565b91505092915050565b61215181611e4c565b82525050565b600060208201905061216c6000830184612148565b92915050565b60006060820190506121876000830186612148565b6121946020830185611ee1565b81810360408301526121a68184611df1565b9050949350505050565b6000602082840312156121c6576121c5611ccc565b5b60006121d484828501611f22565b91505092915050565b6121e681611d5b565b81146121f157600080fd5b50565b600081359050612203816121dd565b92915050565b600080604083850312156122205761221f611ccc565b5b600061222e85828601611f22565b925050602061223f858286016121f4565b9150509250929050565b600067ffffffffffffffff82111561226457612263611fd4565b5b61226d82611de0565b9050602081019050919050565b600061228d61228884612249565b612034565b9050828152602081018484840111156122a9576122a8611fcf565b5b6122b4848285612080565b509392505050565b600082601f8301126122d1576122d0611fca565b5b81356122e184826020860161227a565b91505092915050565b6000806000806080858703121561230457612303611ccc565b5b600061231287828801611f22565b945050602061232387828801611f22565b935050604061233487828801611e6d565b925050606085013567ffffffffffffffff81111561235557612354611cd1565b5b612361878288016122bc565b91505092959194509250565b6000806040838503121561238457612383611ccc565b5b600061239285828601611f22565b92505060206123a385828601611f22565b9150509250929050565b7f4e487b7100000000000000000000000000000000000000000000000000000000600052602260045260246000fd5b600060028204905060018216806123f457607f821691505b60208210811415612408576124076123ad565b5b50919050565b7f4552433732313a20617070726f76656420717565727920666f72206e6f6e657860008201527f697374656e7420746f6b656e0000000000000000000000000000000000000000602082015250565b600061246a602c83611d9c565b91506124758261240e565b604082019050919050565b600060208201905081810360008301526124998161245d565b9050919050565b7f4552433732313a20617070726f76616c20746f2063757272656e74206f776e6560008201527f7200000000000000000000000000000000000000000000000000000000000000602082015250565b60006124fc602183611d9c565b9150612507826124a0565b604082019050919050565b6000602082019050818103600083015261252b816124ef565b9050919050565b7f4552433732313a20617070726f76652063616c6c6572206973206e6f74206f7760008201527f6e6572206e6f7220617070726f76656420666f7220616c6c0000000000000000602082015250565b600061258e603883611d9c565b915061259982612532565b604082019050919050565b600060208201905081810360008301526125bd81612581565b9050919050565b7f4552433732313a207472616e736665722063616c6c6572206973206e6f74206f60008201527f776e6572206e6f7220617070726f766564000000000000000000000000000000602082015250565b6000612620603183611d9c565b915061262b826125c4565b604082019050919050565b6000602082019050818103600083015261264f81612613565b9050919050565b7f46726f6d2061646472657373206d75737420626520746f6b656e206f776e6572600082015250565b600061268c602083611d9c565b915061269782612656565b602082019050919050565b600060208201905081810360008301526126bb8161267f565b9050919050565b7f4552433732313a206f776e657220717565727920666f72206e6f6e657869737460008201527f656e7420746f6b656e0000000000000000000000000000000000000000000000602082015250565b600061271e602983611d9c565b9150612729826126c2565b604082019050919050565b6000602082019050818103600083015261274d81612711565b9050919050565b7f4552433732313a2062616c616e636520717565727920666f7220746865207a6560008201527f726f206164647265737300000000000000000000000000000000000000000000602082015250565b60006127b0602a83611d9c565b91506127bb82612754565b604082019050919050565b600060208201905081810360008301526127df816127a3565b9050919050565b7f45524337323155524953746f726167653a2055524920717565727920666f722060008201527f6e6f6e6578697374656e7420746f6b656e000000000000000000000000000000602082015250565b6000612842603183611d9c565b915061284d826127e6565b604082019050919050565b6000602082019050818103600083015261287181612835565b9050919050565b600081905092915050565b600061288e82611d91565b6128988185612878565b93506128a8818560208601611dad565b80840191505092915050565b60006128c08285612883565b91506128cc8284612883565b91508190509392505050565b7f4552433732313a206f70657261746f7220717565727920666f72206e6f6e657860008201527f697374656e7420746f6b656e0000000000000000000000000000000000000000602082015250565b6000612934602c83611d9c565b915061293f826128d8565b604082019050919050565b6000602082019050818103600083015261296381612927565b9050919050565b7f4552433732313a207472616e736665722066726f6d20696e636f72726563742060008201527f6f776e6572000000000000000000000000000000000000000000000000000000602082015250565b60006129c6602583611d9c565b91506129d18261296a565b604082019050919050565b600060208201905081810360008301526129f5816129b9565b9050919050565b7f4552433732313a207472616e7366657220746f20746865207a65726f2061646460008201527f7265737300000000000000000000000000000000000000000000000000000000602082015250565b6000612a58602483611d9c565b9150612a63826129fc565b604082019050919050565b60006020820190508181036000830152612a8781612a4b565b9050919050565b7f4e487b7100000000000000000000000000000000000000000000000000000000600052601160045260246000fd5b6000612ac882611e4c565b9150612ad383611e4c565b925082821015612ae657612ae5612a8e565b5b828203905092915050565b6000612afc82611e4c565b9150612b0783611e4c565b9250827fffffffffffffffffffffffffffffffffffffffffffffffffffffffffffffffff03821115612b3c57612b3b612a8e565b5b828201905092915050565b7f4552433732313a206d696e7420746f20746865207a65726f2061646472657373600082015250565b6000612b7d602083611d9c565b9150612b8882612b47565b602082019050919050565b60006020820190508181036000830152612bac81612b70565b9050919050565b7f4552433732313a20746f6b656e20616c7265616479206d696e74656400000000600082015250565b6000612be9601c83611d9c565b9150612bf482612bb3565b602082019050919050565b60006020820190508181036000830152612c1881612bdc565b9050919050565b7f45524337323155524953746f726167653a2055524920736574206f66206e6f6e60008201527f6578697374656e7420746f6b656e000000000000000000000000000000000000602082015250565b6000612c7b602e83611d9c565b9150612c8682612c1f565b604082019050919050565b60006020820190508181036000830152612caa81612c6e565b9050919050565b7f4552433732313a20617070726f766520746f2063616c6c657200000000000000600082015250565b6000612ce7601983611d9c565b9150612cf282612cb1565b602082019050919050565b60006020820190508181036000830152612d1681612cda565b9050919050565b7f4552433732313a207472616e7366657220746f206e6f6e20455243373231526560008201527f63656976657220696d706c656d656e7465720000000000000000000000000000602082015250565b6000612d79603283611d9c565b9150612d8482612d1d565b604082019050919050565b60006020820190508181036000830152612da881612d6c565b9050919050565b7f4552433732314d657461646174613a2055524920717565727920666f72206e6f60008201527f6e6578697374656e7420746f6b656e0000000000000000000000000000000000602082015250565b6000612e0b602f83611d9c565b9150612e1682612daf565b604082019050919050565b60006020820190508181036000830152612e3a81612dfe565b9050919050565b600081519050919050565b600082825260208201905092915050565b6000612e6882612e41565b612e728185612e4c565b9350612e82818560208601611dad565b612e8b81611de0565b840191505092915050565b6000608082019050612eab6000830187611ee1565b612eb86020830186611ee1565b612ec56040830185612148565b8181036060830152612ed78184612e5d565b905095945050505050565b600081519050612ef181611d02565b92915050565b600060208284031215612f0d57612f0c611ccc565b5b6000612f1b84828501612ee2565b91505092915050565b6000612f2f82611e4c565b91507fffffffffffffffffffffffffffffffffffffffffffffffffffffffffffffffff821415612f6257612f61612a8e565b5b600182019050919050565b7f4e487b7100000000000000000000000000000000000000000000000000000000600052601260045260246000fd5b6000612fa782611e4c565b9150612fb283611e4c565b925082612fc257612fc1612f6d565b5b828204905092915050565b6000612fd882611e4c565b9150612fe383611e4c565b925082612ff357612ff2612f6d565b5b828206905092915050565b7f4e487b7100000000000000000000000000000000000000000000000000000000600052603260045260246000fdfea2646970667358221220a9a997c4f591854489065d476bfde40537dd7957da3a9e264253c55e9f57cb7164736f6c634300080a0033",
  "linkReferences": {},
  "deployedLinkReferences": {}
}