{
  "_format": "hh-sol-artifact-1",
  "contractName": "Market",
  "sourceName": "contracts/Market.sol",
  "abi": [
    {
      "inputs": [],
      "stateMutability": "nonpayable",
      "type": "constructor"
    },
    {
      "anonymous": false,
      "inputs": [
        {
          "indexed": true,
          "internalType": "uint256",
          "name": "itemId",
          "type": "uint256"
        },
        {
          "indexed": true,
          "internalType": "address",
          "name": "nftContract",
          "type": "address"
        },
        {
          "indexed": true,
          "internalType": "uint256",
          "name": "tokenId",
          "type": "uint256"
        },
        {
          "indexed": false,
          "internalType": "address",
          "name": "seller",
          "type": "address"
        },
        {
          "indexed": false,
          "internalType": "address",
          "name": "owner",
          "type": "address"
        },
        {
          "indexed": false,
          "internalType": "uint256",
          "name": "price",
          "type": "uint256"
        },
        {
          "indexed": false,
          "internalType": "bool",
          "name": "sold",
          "type": "bool"
        }
      ],
      "name": "nftItemCreated",
      "type": "event"
    },
    {
      "stateMutability": "payable",
      "type": "fallback"
    },
    {
      "inputs": [
        {
          "internalType": "address",
          "name": "nftContract",
          "type": "address"
        },
        {
          "internalType": "uint256",
          "name": "itemId",
          "type": "uint256"
        }
      ],
      "name": "createItemSale",
      "outputs": [],
      "stateMutability": "payable",
      "type": "function"
    },
    {
      "inputs": [
        {
          "internalType": "address",
          "name": "nftContract",
          "type": "address"
        },
        {
          "internalType": "uint256",
          "name": "tokenId",
          "type": "uint256"
        },
        {
          "internalType": "uint256",
          "name": "price",
          "type": "uint256"
        }
      ],
      "name": "createMarketItem",
      "outputs": [],
      "stateMutability": "payable",
      "type": "function"
    },
    {
      "inputs": [],
      "name": "fetchMyNftItems",
      "outputs": [
        {
          "components": [
            {
              "internalType": "uint256",
              "name": "itemId",
              "type": "uint256"
            },
            {
              "internalType": "address",
              "name": "nftContract",
              "type": "address"
            },
            {
              "internalType": "uint256",
              "name": "tokenId",
              "type": "uint256"
            },
            {
              "internalType": "address payable",
              "name": "seller",
              "type": "address"
            },
            {
              "internalType": "address payable",
              "name": "owner",
              "type": "address"
            },
            {
              "internalType": "uint256",
              "name": "price",
              "type": "uint256"
            },
            {
              "internalType": "bool",
              "name": "sold",
              "type": "bool"
            }
          ],
          "internalType": "struct Market.nftItem[]",
          "name": "",
          "type": "tuple[]"
        }
      ],
      "stateMutability": "view",
      "type": "function"
    },
    {
      "inputs": [
        {
          "internalType": "uint256",
          "name": "itemId",
          "type": "uint256"
        }
      ],
      "name": "fetchNftItemById",
      "outputs": [
        {
          "components": [
            {
              "internalType": "uint256",
              "name": "itemId",
              "type": "uint256"
            },
            {
              "internalType": "address",
              "name": "nftContract",
              "type": "address"
            },
            {
              "internalType": "uint256",
              "name": "tokenId",
              "type": "uint256"
            },
            {
              "internalType": "address payable",
              "name": "seller",
              "type": "address"
            },
            {
              "internalType": "address payable",
              "name": "owner",
              "type": "address"
            },
            {
              "internalType": "uint256",
              "name": "price",
              "type": "uint256"
            },
            {
              "internalType": "bool",
              "name": "sold",
              "type": "bool"
            }
          ],
          "internalType": "struct Market.nftItem",
          "name": "",
          "type": "tuple"
        }
      ],
      "stateMutability": "view",
      "type": "function"
    },
    {
      "inputs": [],
      "name": "fetchNftItems",
      "outputs": [
        {
          "components": [
            {
              "internalType": "uint256",
              "name": "itemId",
              "type": "uint256"
            },
            {
              "internalType": "address",
              "name": "nftContract",
              "type": "address"
            },
            {
              "internalType": "uint256",
              "name": "tokenId",
              "type": "uint256"
            },
            {
              "internalType": "address payable",
              "name": "seller",
              "type": "address"
            },
            {
              "internalType": "address payable",
              "name": "owner",
              "type": "address"
            },
            {
              "internalType": "uint256",
              "name": "price",
              "type": "uint256"
            },
            {
              "internalType": "bool",
              "name": "sold",
              "type": "bool"
            }
          ],
          "internalType": "struct Market.nftItem[]",
          "name": "",
          "type": "tuple[]"
        }
      ],
      "stateMutability": "view",
      "type": "function"
    },
    {
      "inputs": [],
      "name": "fetchNftItemsCreated",
      "outputs": [
        {
          "components": [
            {
              "internalType": "uint256",
              "name": "itemId",
              "type": "uint256"
            },
            {
              "internalType": "address",
              "name": "nftContract",
              "type": "address"
            },
            {
              "internalType": "uint256",
              "name": "tokenId",
              "type": "uint256"
            },
            {
              "internalType": "address payable",
              "name": "seller",
              "type": "address"
            },
            {
              "internalType": "address payable",
              "name": "owner",
              "type": "address"
            },
            {
              "internalType": "uint256",
              "name": "price",
              "type": "uint256"
            },
            {
              "internalType": "bool",
              "name": "sold",
              "type": "bool"
            }
          ],
          "internalType": "struct Market.nftItem[]",
          "name": "",
          "type": "tuple[]"
        }
      ],
      "stateMutability": "view",
      "type": "function"
    },
    {
      "inputs": [],
      "name": "getListingPrice",
      "outputs": [
        {
          "internalType": "uint256",
          "name": "",
          "type": "uint256"
        }
      ],
      "stateMutability": "view",
      "type": "function"
    },
    {
      "inputs": [
        {
          "internalType": "address",
          "name": "nftContract",
          "type": "address"
        },
        {
          "internalType": "uint256",
          "name": "tokenId",
          "type": "uint256"
        },
        {
          "internalType": "uint256",
          "name": "price",
          "type": "uint256"
        }
      ],
      "name": "resellNftItem",
      "outputs": [],
      "stateMutability": "payable",
      "type": "function"
    },
    {
      "stateMutability": "payable",
      "type": "receive"
    }
  ],
  "bytecode": "0x608060405266038d7ea4c6800060045534801561001b57600080fd5b50600160008190555033600360006101000a81548173ffffffffffffffffffffffffffffffffffffffff021916908373ffffffffffffffffffffffffffffffffffffffff160217905550611fed806100746000396000f3fe60806040526004361061007f5760003560e01c8063dcc848341161004e578063dcc8483414610107578063ebecee4914610132578063f3032fd41461015d578063fff3abc31461018857610086565b806312e85585146100885780631e9d8eaf146100b35780633aa3c063146100cf57806358eb2df5146100eb57610086565b3661008657005b005b34801561009457600080fd5b5061009d6101c5565b6040516100aa9190611634565b60405180910390f35b6100cd60048036038101906100c891906116de565b6101cf565b005b6100e960048036038101906100e49190611731565b610429565b005b610105600480360381019061010091906116de565b610748565b005b34801561011357600080fd5b5061011c610aac565b6040516101299190611908565b60405180910390f35b34801561013e57600080fd5b50610147610dd6565b6040516101549190611908565b60405180910390f35b34801561016957600080fd5b50610172611100565b60405161017f9190611908565b60405180910390f35b34801561019457600080fd5b506101af60048036038101906101aa919061192a565b6113b2565b6040516101bc91906119e5565b60405180910390f35b6000600454905090565b3373ffffffffffffffffffffffffffffffffffffffff166005600084815260200190815260200160002060040160009054906101000a900473ffffffffffffffffffffffffffffffffffffffff1673ffffffffffffffffffffffffffffffffffffffff1614610273576040517f08c379a000000000000000000000000000000000000000000000000000000000815260040161026a90611a83565b60405180910390fd5b60045434146102b7576040517f08c379a00000000000000000000000000000000000000000000000000000000081526004016102ae90611b15565b60405180910390fd5b60006005600084815260200190815260200160002060060160006101000a81548160ff021916908315150217905550806005600084815260200190815260200160002060050181905550336005600084815260200190815260200160002060030160006101000a81548173ffffffffffffffffffffffffffffffffffffffff021916908373ffffffffffffffffffffffffffffffffffffffff160217905550306005600084815260200190815260200160002060040160006101000a81548173ffffffffffffffffffffffffffffffffffffffff021916908373ffffffffffffffffffffffffffffffffffffffff1602179055506103b5600261151a565b8273ffffffffffffffffffffffffffffffffffffffff16636295c61a3330856040518463ffffffff1660e01b81526004016103f293929190611b44565b600060405180830381600087803b15801561040c57600080fd5b505af1158015610420573d6000803e3d6000fd5b50505050505050565b6002600054141561046f576040517f08c379a000000000000000000000000000000000000000000000000000000000815260040161046690611bc7565b60405180910390fd5b60026000819055506000600560008381526020019081526020016000206002015490506000600560008481526020019081526020016000206005015490508034146104ef576040517f08c379a00000000000000000000000000000000000000000000000000000000081526004016104e690611c59565b60405180910390fd5b60006005600085815260200190815260200160002060030160009054906101000a900473ffffffffffffffffffffffffffffffffffffffff1673ffffffffffffffffffffffffffffffffffffffff163460405161054b90611caa565b60006040518083038185875af1925050503d8060008114610588576040519150601f19603f3d011682016040523d82523d6000602084013e61058d565b606091505b50509050806105d1576040517f08c379a00000000000000000000000000000000000000000000000000000000081526004016105c890611d0b565b60405180910390fd5b8473ffffffffffffffffffffffffffffffffffffffff166323b872dd3033866040518463ffffffff1660e01b815260040161060e93929190611b44565b600060405180830381600087803b15801561062857600080fd5b505af115801561063c573d6000803e3d6000fd5b50505050336005600086815260200190815260200160002060040160006101000a81548173ffffffffffffffffffffffffffffffffffffffff021916908373ffffffffffffffffffffffffffffffffffffffff16021790555060016005600086815260200190815260200160002060060160006101000a81548160ff0219169083151502179055506106ce6002611576565b600360009054906101000a900473ffffffffffffffffffffffffffffffffffffffff1673ffffffffffffffffffffffffffffffffffffffff166108fc6004549081150290604051600060405180830381858888f19350505050158015610738573d6000803e3d6000fd5b5050505060016000819055505050565b6002600054141561078e576040517f08c379a000000000000000000000000000000000000000000000000000000000815260040161078590611bc7565b60405180910390fd5b6002600081905550600081116107d9576040517f08c379a00000000000000000000000000000000000000000000000000000000081526004016107d090611d77565b60405180910390fd5b600454341461081d576040517f08c379a000000000000000000000000000000000000000000000000000000000815260040161081490611b15565b60405180910390fd5b6000610829600161158c565b90506040518060e001604052808281526020018573ffffffffffffffffffffffffffffffffffffffff1681526020018481526020013373ffffffffffffffffffffffffffffffffffffffff168152602001600073ffffffffffffffffffffffffffffffffffffffff16815260200183815260200160001515815250600560008381526020019081526020016000206000820151816000015560208201518160010160006101000a81548173ffffffffffffffffffffffffffffffffffffffff021916908373ffffffffffffffffffffffffffffffffffffffff1602179055506040820151816002015560608201518160030160006101000a81548173ffffffffffffffffffffffffffffffffffffffff021916908373ffffffffffffffffffffffffffffffffffffffff16021790555060808201518160040160006101000a81548173ffffffffffffffffffffffffffffffffffffffff021916908373ffffffffffffffffffffffffffffffffffffffff16021790555060a0820151816005015560c08201518160060160006101000a81548160ff0219169083151502179055509050508373ffffffffffffffffffffffffffffffffffffffff166323b872dd3330866040518463ffffffff1660e01b8152600401610a0a93929190611b44565b600060405180830381600087803b158015610a2457600080fd5b505af1158015610a38573d6000803e3d6000fd5b50505050610a466001611576565b828473ffffffffffffffffffffffffffffffffffffffff16827f52cb9ce76f1f1bca8f559defa6dc11e9ace0c7cf388addf4eef885f2ffdbd2eb336000876000604051610a969493929190611da6565b60405180910390a4506001600081905550505050565b60606000610aba600161158c565b905060008060005b83811015610b57573373ffffffffffffffffffffffffffffffffffffffff166005600083815260200190815260200160002060040160009054906101000a900473ffffffffffffffffffffffffffffffffffffffff1673ffffffffffffffffffffffffffffffffffffffff161415610b4457600183610b419190611e1a565b92505b8080610b4f90611e70565b915050610ac2565b5060008267ffffffffffffffff811115610b7457610b73611eb9565b5b604051908082528060200260200182016040528015610bad57816020015b610b9a61159a565b815260200190600190039081610b925790505b50905060005b84811015610dcb573373ffffffffffffffffffffffffffffffffffffffff166005600083815260200190815260200160002060040160009054906101000a900473ffffffffffffffffffffffffffffffffffffffff1673ffffffffffffffffffffffffffffffffffffffff161415610db85760008190506000600560008381526020019081526020016000209050806040518060e0016040529081600082015481526020016001820160009054906101000a900473ffffffffffffffffffffffffffffffffffffffff1673ffffffffffffffffffffffffffffffffffffffff1673ffffffffffffffffffffffffffffffffffffffff168152602001600282015481526020016003820160009054906101000a900473ffffffffffffffffffffffffffffffffffffffff1673ffffffffffffffffffffffffffffffffffffffff1673ffffffffffffffffffffffffffffffffffffffff1681526020016004820160009054906101000a900473ffffffffffffffffffffffffffffffffffffffff1673ffffffffffffffffffffffffffffffffffffffff1673ffffffffffffffffffffffffffffffffffffffff168152602001600582015481526020016006820160009054906101000a900460ff161515151581525050848681518110610d9b57610d9a611ee8565b5b6020026020010181905250600185610db39190611e1a565b945050505b8080610dc390611e70565b915050610bb3565b508094505050505090565b60606000610de4600161158c565b905060008060005b83811015610e81573373ffffffffffffffffffffffffffffffffffffffff166005600083815260200190815260200160002060030160009054906101000a900473ffffffffffffffffffffffffffffffffffffffff1673ffffffffffffffffffffffffffffffffffffffff161415610e6e57600183610e6b9190611e1a565b92505b8080610e7990611e70565b915050610dec565b5060008267ffffffffffffffff811115610e9e57610e9d611eb9565b5b604051908082528060200260200182016040528015610ed757816020015b610ec461159a565b815260200190600190039081610ebc5790505b50905060005b848110156110f5573373ffffffffffffffffffffffffffffffffffffffff166005600083815260200190815260200160002060030160009054906101000a900473ffffffffffffffffffffffffffffffffffffffff1673ffffffffffffffffffffffffffffffffffffffff1614156110e25760008190506000600560008381526020019081526020016000209050806040518060e0016040529081600082015481526020016001820160009054906101000a900473ffffffffffffffffffffffffffffffffffffffff1673ffffffffffffffffffffffffffffffffffffffff1673ffffffffffffffffffffffffffffffffffffffff168152602001600282015481526020016003820160009054906101000a900473ffffffffffffffffffffffffffffffffffffffff1673ffffffffffffffffffffffffffffffffffffffff1673ffffffffffffffffffffffffffffffffffffffff1681526020016004820160009054906101000a900473ffffffffffffffffffffffffffffffffffffffff1673ffffffffffffffffffffffffffffffffffffffff1673ffffffffffffffffffffffffffffffffffffffff168152602001600582015481526020016006820160009054906101000a900460ff1615151515815250508486815181106110c5576110c4611ee8565b5b60200260200101819052506001856110dd9190611e1a565b945050505b80806110ed90611e70565b915050610edd565b508094505050505090565b6060600061110e600161158c565b9050600061111c600261158c565b611126600161158c565b6111309190611f17565b90506000808267ffffffffffffffff81111561114f5761114e611eb9565b5b60405190808252806020026020018201604052801561118857816020015b61117561159a565b81526020019060019003908161116d5790505b50905060005b848110156113a757600073ffffffffffffffffffffffffffffffffffffffff166005600083815260200190815260200160002060040160009054906101000a900473ffffffffffffffffffffffffffffffffffffffff1673ffffffffffffffffffffffffffffffffffffffff1614156113945760008190506000600560008381526020019081526020016000209050806040518060e0016040529081600082015481526020016001820160009054906101000a900473ffffffffffffffffffffffffffffffffffffffff1673ffffffffffffffffffffffffffffffffffffffff1673ffffffffffffffffffffffffffffffffffffffff168152602001600282015481526020016003820160009054906101000a900473ffffffffffffffffffffffffffffffffffffffff1673ffffffffffffffffffffffffffffffffffffffff1673ffffffffffffffffffffffffffffffffffffffff1681526020016004820160009054906101000a900473ffffffffffffffffffffffffffffffffffffffff1673ffffffffffffffffffffffffffffffffffffffff1673ffffffffffffffffffffffffffffffffffffffff168152602001600582015481526020016006820160009054906101000a900460ff16151515158152505084868151811061137757611376611ee8565b5b602002602001018190525060018561138f9190611e1a565b945050505b808061139f90611e70565b91505061118e565b508094505050505090565b6113ba61159a565b600560008381526020019081526020016000206040518060e0016040529081600082015481526020016001820160009054906101000a900473ffffffffffffffffffffffffffffffffffffffff1673ffffffffffffffffffffffffffffffffffffffff1673ffffffffffffffffffffffffffffffffffffffff168152602001600282015481526020016003820160009054906101000a900473ffffffffffffffffffffffffffffffffffffffff1673ffffffffffffffffffffffffffffffffffffffff1673ffffffffffffffffffffffffffffffffffffffff1681526020016004820160009054906101000a900473ffffffffffffffffffffffffffffffffffffffff1673ffffffffffffffffffffffffffffffffffffffff1673ffffffffffffffffffffffffffffffffffffffff168152602001600582015481526020016006820160009054906101000a900460ff1615151515815250509050919050565b60008160000154905060008111611566576040517f08c379a000000000000000000000000000000000000000000000000000000000815260040161155d90611f97565b60405180910390fd5b6001810382600001819055505050565b6001816000016000828254019250508190555050565b600081600001549050919050565b6040518060e0016040528060008152602001600073ffffffffffffffffffffffffffffffffffffffff16815260200160008152602001600073ffffffffffffffffffffffffffffffffffffffff168152602001600073ffffffffffffffffffffffffffffffffffffffff168152602001600081526020016000151581525090565b6000819050919050565b61162e8161161b565b82525050565b60006020820190506116496000830184611625565b92915050565b600080fd5b600073ffffffffffffffffffffffffffffffffffffffff82169050919050565b600061167f82611654565b9050919050565b61168f81611674565b811461169a57600080fd5b50565b6000813590506116ac81611686565b92915050565b6116bb8161161b565b81146116c657600080fd5b50565b6000813590506116d8816116b2565b92915050565b6000806000606084860312156116f7576116f661164f565b5b60006117058682870161169d565b9350506020611716868287016116c9565b9250506040611727868287016116c9565b9150509250925092565b600080604083850312156117485761174761164f565b5b60006117568582860161169d565b9250506020611767858286016116c9565b9150509250929050565b600081519050919050565b600082825260208201905092915050565b6000819050602082019050919050565b6117a68161161b565b82525050565b6117b581611674565b82525050565b60006117c682611654565b9050919050565b6117d6816117bb565b82525050565b60008115159050919050565b6117f1816117dc565b82525050565b60e08201600082015161180d600085018261179d565b50602082015161182060208501826117ac565b506040820151611833604085018261179d565b50606082015161184660608501826117cd565b50608082015161185960808501826117cd565b5060a082015161186c60a085018261179d565b5060c082015161187f60c08501826117e8565b50505050565b600061189183836117f7565b60e08301905092915050565b6000602082019050919050565b60006118b582611771565b6118bf818561177c565b93506118ca8361178d565b8060005b838110156118fb5781516118e28882611885565b97506118ed8361189d565b9250506001810190506118ce565b5085935050505092915050565b6000602082019050818103600083015261192281846118aa565b905092915050565b6000602082840312156119405761193f61164f565b5b600061194e848285016116c9565b91505092915050565b60e08201600082015161196d600085018261179d565b50602082015161198060208501826117ac565b506040820151611993604085018261179d565b5060608201516119a660608501826117cd565b5060808201516119b960808501826117cd565b5060a08201516119cc60a085018261179d565b5060c08201516119df60c08501826117e8565b50505050565b600060e0820190506119fa6000830184611957565b92915050565b600082825260208201905092915050565b7f4f6e6c79206974656d206f776e65722063616e20706572666f726d207468697360008201527f206f7065726174696f6e00000000000000000000000000000000000000000000602082015250565b6000611a6d602a83611a00565b9150611a7882611a11565b604082019050919050565b60006020820190508181036000830152611a9c81611a60565b9050919050565b7f5072696365206d75737420626520657175616c20746f206c697374696e67207060008201527f7269636500000000000000000000000000000000000000000000000000000000602082015250565b6000611aff602483611a00565b9150611b0a82611aa3565b604082019050919050565b60006020820190508181036000830152611b2e81611af2565b9050919050565b611b3e81611674565b82525050565b6000606082019050611b596000830186611b35565b611b666020830185611b35565b611b736040830184611625565b949350505050565b7f5265656e7472616e637947756172643a207265656e7472616e742063616c6c00600082015250565b6000611bb1601f83611a00565b9150611bbc82611b7b565b602082019050919050565b60006020820190508181036000830152611be081611ba4565b9050919050565b7f506c65617365207375626d6974207468652061736b656420707269636520696e60008201527f206f7264657220746f20636f6d706c6574652074686520707572636861736500602082015250565b6000611c43603f83611a00565b9150611c4e82611be7565b604082019050919050565b60006020820190508181036000830152611c7281611c36565b9050919050565b600081905092915050565b50565b6000611c94600083611c79565b9150611c9f82611c84565b600082019050919050565b6000611cb582611c87565b9150819050919050565b7f5472616e73666572206661696c65640000000000000000000000000000000000600082015250565b6000611cf5600f83611a00565b9150611d0082611cbf565b602082019050919050565b60006020820190508181036000830152611d2481611ce8565b9050919050565b7f5072696365206d7573742062652067726561746572207468616e203000000000600082015250565b6000611d61601c83611a00565b9150611d6c82611d2b565b602082019050919050565b60006020820190508181036000830152611d9081611d54565b9050919050565b611da0816117dc565b82525050565b6000608082019050611dbb6000830187611b35565b611dc86020830186611b35565b611dd56040830185611625565b611de26060830184611d97565b95945050505050565b7f4e487b7100000000000000000000000000000000000000000000000000000000600052601160045260246000fd5b6000611e258261161b565b9150611e308361161b565b9250827fffffffffffffffffffffffffffffffffffffffffffffffffffffffffffffffff03821115611e6557611e64611deb565b5b828201905092915050565b6000611e7b8261161b565b91507fffffffffffffffffffffffffffffffffffffffffffffffffffffffffffffffff821415611eae57611ead611deb565b5b600182019050919050565b7f4e487b7100000000000000000000000000000000000000000000000000000000600052604160045260246000fd5b7f4e487b7100000000000000000000000000000000000000000000000000000000600052603260045260246000fd5b6000611f228261161b565b9150611f2d8361161b565b925082821015611f4057611f3f611deb565b5b828203905092915050565b7f436f756e7465723a2064656372656d656e74206f766572666c6f770000000000600082015250565b6000611f81601b83611a00565b9150611f8c82611f4b565b602082019050919050565b60006020820190508181036000830152611fb081611f74565b905091905056fea26469706673582212204b50b8747522037fdf65e7e360f4fd074946d10cb1eb26be739211d4367891a764736f6c634300080a0033",
  "linkReferences": {},
  "deployedLinkReferences": {}
}